:1000000085C00000B0C00000AEC00000ACC0000061
:10001000AAC00000A8C00000A6C00000A4C0000044
:10002000A2C00000A0C000009EC00000A5C3000048
:100030004BC4000098C0000096C0000094C00000AF
:1000400092C0000090C000008EC000008CC0000074
:100050008AC0000088C0000086C0000084C0000084
:1000600082C0000080C000007EC000007CC0000094
:100070007AC000006364696E6F70737578585B00B6
:100080001C034C0055004600410020004300440082
:1000900043002000440065006D006F00000018035D
:1000A0004400650061006E002000430061006D00A7
:1000B00065007200610000000403090409023E00AB
:1000C000020100C0320904000001020201000524FF
:1000D000001001042402060524060001070582031E
:1000E0000800FF09040100020A00000007050402DD
:1000F000100005070583021000051201100102001F
:100100000008EB03442001000102DC0111241FBEA2
:10011000CFEFD2E0DEBFCDBF04B603FE0EC08091AC
:100120001102909112028433924139F4109212021A
:1001300010921102E0E0F0E3099511E0A0E0B1E0D7
:10014000E8E3FCE102C005900D92A03FB107D9F7AA
:1001500022E0A0EFB1E001C01D92A131B207E1F7AA
:10016000CDD00C941A0E4CCF0FB6F894A895809170
:100170006000886180936000109260000FBEEDD235
:1001800060EF71E080E091E041D6EBE0F2E080EFDB
:1001900091E091838083938382837894089590D2B1
:1001A000F8942FEF83ED90E3215080409040E1F7E9
:1001B00000C0000084E392E1909312028093110248
:1001C0009CE088E10FB6F894A895809360000FBE7C
:1001D00090936000FFCFCF93DF9300D0CDB7DEB711
:1001E0009E012F5F3F4F3F932F932BE131E03F93D1
:1001F0002F939F938F9348D70F900F900F900F904E
:100200000F900F90019719F080E291E008C0E9810A
:10021000FA81EF3FF10529F020F081E391E004D766
:1002200010C080811F928F93FF93EF9387E491E03A
:100230009F938F93E6D60F900F900F900F900F9093
:100240000F900F900F90DF91CF9108950F931F9310
:10025000CF93DF9300D000D0CDB7DEB78C01CE01B5
:1002600001969F938F9302969F938F9384E591E0DD
:100270009F938F931F930F9307D70FB6F894DEBF0A
:100280000FBECDBF029741F08CE591E09F938F9315
:10029000B8D60F900F9015C0EB81FC81EF3FF105B0
:1002A00021F018F081E391E00BC089819A818F3FA2
:1002B000910521F018F086E791E002C08083C80123
:1002C000B3D60F900F900F900F90DF91CF911F91A9
:1002D0000F910895CF93DF93EC0189E891E0A4D6C4
:1002E000DF93CF9380ED91E09F938F938AD60F9009
:1002F0000F900F900F90DF91CF910895CF93DF93E0
:10030000CDB7DEB76E970FB6F894DEBF0FBECDBF88
:100310002BDF40910B0250910C026DE170E0CE0199
:10032000019646D644E050E06BEE71E0CE010196B6
:1003300031D6892B09F433DF8981873521F4CE0149
:10034000019684DFE6CF823521F4CE01019643DFAA
:10035000E0CFCE010196BEDFDCCF80E091E073C438
:1003600080E091E067C5292F33272230310559F00D
:100370002330310569F021303105E9F482E190E064
:100380002AEF30E01CC08EE390E02CEB30E017C089
:1003900099278130910549F028F0029761F4E0E84F
:1003A000F0E005C0E8EBF0E002C0EEE9F0E0849197
:1003B00090E09F0104C080E090E020E030E0FA018E
:1003C0003183208308952091090230910A02261773
:1003D000370748F06115710539F42091E8002E7750
:1003E0002093E80001C0B901FC0120E0611571050E
:1003F00061F1809102028823D9F18530D9F1809191
:10040000E80083FD39C08091E80082FD2BC0809117
:10041000E80080FFEBCF8091F20090E0611571055C
:1004200051F08830910538F421912093F10061500A
:1004300071090196F3CF21E0089709F020E080913F
:10044000E8008E778093E800D1CF2111D2CF0AC087
:1004500080910202882361F0853061F08091E8008C
:1004600083FD0AC08091E80082FFF2CF80E008950A
:1004700082E0089583E0089581E0089520910902C3
:1004800030910A022617370748F06115710539F4D3
:100490002091E8002E772093E80001C0B901FC010B
:1004A00020E06115710579F180910202882309F439
:1004B0003DC0853009F43CC08091E80083FD3AC01E
:1004C0008091E80082FD2CC08091E80080FFE9CF98
:1004D0008091F20090E06115710559F08830910526
:1004E00040F424912093F1003196615071090196F6
:1004F000F2CF21E0089709F020E08091E8008E77A4
:100500008093E800CECF2111CFCF0AC080910202A4
:10051000882361F0853061F08091E80083FD0AC096
:100520008091E80082FFF2CF80E0089582E0089594
:1005300083E0089581E00895982F953068F59093B1
:10054000E900981739F07091EC002091ED0050917E
:10055000F00003C0242F762F50E021FD02C09F5FE2
:10056000ECCF3091EB003E7F3093EB003091ED000B
:100570003D7F3093ED003091EB0031603093EB0024
:100580007093EC002093ED005093F0002091EE006A
:1005900027FDE5CF80E008958F708093E90081E02A
:1005A00008950F931F93CF93DF93062FEC0110E074
:1005B000101771F19881911103C01F5F2596F8CF34
:1005C0002C81A981BA816B81892F8F70853010F0C1
:1005D00080E01FC0223010F442E001C046E0E8E0B5
:1005E000F0E020E0EA17FB0720F42F5FEE0FFF1F7B
:1005F000F9CF2295207F422B6295660F660F607CB3
:10060000991F9927991F692B97DF8111D6CFE0CFCA
:1006100081E0DF91CF911F910F91089580910302A6
:1006200087FF11C08091E80082FD05C08091020221
:100630008111F8CF11C08091E8008B770BC08091B9
:100640000202882349F08091E80080FFF8CF809172
:10065000E8008E778093E80008952091E4003091BF
:10066000E50095E64091EC00842F817040FF23C0A7
:100670008091E80080FD1DC080910202882399F0DE
:10068000853099F08091EB0085FD11C04091E40028
:100690005091E5002417350729F3915011F09A0184
:1006A000E1CF84E0089582E0089583E0089581E039
:1006B000089580E008954091E80042FFDDCF08955D
:1006C00055D057D0E0EEF0E0808181608083E8ED86
:1006D000F0E080818F77808319BCE3E6F0E08081D1
:1006E0008160808310920102089540D042D08091B1
:1006F000D8008F778093D8008091D800806880934D
:10070000D8008091D8008F7D8093D80019BC82E0FA
:1007100089BD09B400FEFDCF109202021092FE01C5
:10072000109200021092FF0142E060E080E004DFDE
:100730008091E1008E7F8093E1008091E2008160F2
:100740008093E2008091E20088608093E2008091D3
:10075000E0008E7F8093E0000895E3E6F0E0808182
:100760008E7F808381E080930102BFCF1092E200F0
:1007700008951092E10008951F920F920FB60F9204
:1007800011242F933F934F935F936F937F938F9396
:100790009F93AF93BF93EF93FF938091E10082FF0C
:1007A0000AC08091E20082FF06C08091E1008B7F49
:1007B0008093E1002DD28091E10080FF17C08091ED
:1007C000E20080FF13C08091E2008E7F8093E20000
:1007D0008091E20080618093E2008091D800806285
:1007E0008093D80019BC1092020212D28091E100CD
:1007F00084FF2EC08091E20084FF2AC019BC82E0F1
:1008000089BD09B400FEFDCF8091D8008F7D809313
:10081000D8008091E1008F7E8093E1008091E2001A
:100820008F7E8093E2008091E20081608093E200FD
:100830008091FE01882311F084E007C08091E300DD
:1008400087FD02C081E001C083E080930202E0D115
:100850008091E10083FF27C08091E20083FF23C0E5
:100860008091E100877F8093E10082E08093020223
:100870001092FE018091E1008E7F8093E1008091D3
:10088000E2008E7F8093E2008091E200806180939D
:10089000E20042E060E080E04FDE8091F00088609E
:1008A0008093F000B5D1FF91EF91BF91AF919F91EF
:1008B0008F917F916F915F914F913F912F910F9009
:1008C0000FBE0F901F9018951F920F920FB60F92A8
:1008D00011242F933F934F935F936F937F938F9345
:1008E0009F93AF93BF93CF93DF93EF93FF93C09109
:1008F000E900CF708091EC00D82FD17080FDD0E856
:100900001092E9008091F000877F8093F000789446
:100910001ED01092E9008091F00088608093F00072
:10092000CD2BCF70C093E900FF91EF91DF91CF9174
:10093000BF91AF919F918F917F916F915F914F91F7
:100940003F912F910F900FBE0F901F9018951F93FE
:10095000CF93DF93CDB7DEB7AA970FB6F894DEBF7B
:100960000FBECDBFE3E0F2E08091F100819322E081
:10097000EB30F207C9F7F4DC8091E80083FF30C167
:100980008091030290910402953009F483C030F401
:100990009130A9F168F0933091F122C1983009F4B7
:1009A000EFC0993009F4FBC0963009F019C194C02A
:1009B000803821F0823809F013C108C08091FF010E
:1009C00090910002992389F082600FC08091070204
:1009D0008F70853008F004C18093E9008091EB00AE
:1009E00085FB882780F91092E9009091E800977FB5
:1009F0009093E8008093F1001092F100CCC0282F72
:100A00002D7F09F0EDC0882319F0823061F0E8C035
:100A100080910502813009F0E3C0933009F080E055
:100A2000809300022EC08091050281112AC080911E
:100A300007028F702FEF280F243008F0D1C0809369
:100A4000E9002091EB0020FF1CC0933021F480913D
:100A5000EB00806214C09091EB0090619093EB00EA
:100A600021E030E0A90102C0440F551F8A95E2F74A
:100A70004093EA001092EA008091EB008860809336
:100A8000EB001092E9008091E800877F8093E800F6
:100A9000C5DDA6C08111A4C0109105021F77809109
:100AA000E3008078812B8093E3008091E800877FCA
:100AB0008093E800B3DD8091E80080FFFCCF809157
:100AC000E30080688093E300111102C082E001C05E
:100AD00083E08093020284C08058823008F080C096
:100AE00080910502909106028C3D53E0950771F5C7
:100AF00083E08A838AE289834FB7F894DE011396F4
:100B000020E03EE051E2E32FF0E050935700E49103
:100B100020FF03C0E295EF703F5FEF708E2F90E0F3
:100B2000EA3010F0C79601C0C0968D939D932F5F59
:100B3000243149F74FBF8091E800877F8093E80018
:100B40006AE270E0CE0101963EDC14C060910702BB
:100B500070910802AE014F5F5F4F05DCBC01892B2D
:100B600009F43EC09091E800977F9093E800898156
:100B70009A8184DC8091E8008B778093E80030C014
:100B8000803871F58091E800877F8093E80080913C
:100B9000FE018093F1008091E8008E7777CF81117C
:100BA0001FC0809105029091060299270297C4F414
:100BB0008091E800877F8093E80080910502809310
:100BC000FE012CDD8091FE01811106C08091E300C1
:100BD00087FD02C081E001C084E080930202BDDB9A
:100BE0008091E80083FF0AC08091E800877F8093AE
:100BF000E8008091EB0080628093EB00AA960FB62C
:100C0000F894DEBF0FBECDBFDF91CF911F91089545
:100C10000895CF9380910202882399F0C091E90052
:100C2000CF709091EC00892F817090FD80E8C82BE7
:100C30001092E9008091E80083FD89DECF70C093B7
:100C4000E900CF910895CF93DF93EC01FC017096FA
:100C50008BE0DF011D928A95E9F782E08C8389871A
:100C600083E08E8761E0CE0101969BDC882361F0F2
:100C700061E0CE01069695DC882331F061E0CE017B
:100C80000B96DF91CF918DCC80E0DF91CF910895CD
:100C90000F931F93CF93209102022430F9F4FC01AB
:100CA0000489158926893789012B022B032BB1F082
:100CB000C62F81818F708093E9008091E80085FFC5
:100CC00004C0C093F10080E00AC08091E8008E77F4
:100CD0008093E800C2DC8823A1F301C082E0CF91B9
:100CE0001F910F910895FB01682F84859585D0DFB2
:100CF00021E030E0811102C020E030E08827992710
:100D0000821B930B089520910202243021F5FC01EF
:100D10004489558966897789452B462B472BD9F01D
:100D200081818F708093E9008091F200882389F09F
:100D30009091E8008091E8008E778093E80095FD1F
:100D400008C08BDC811108C08091E8008E77809309
:100D5000E80080E0089582E00895209102022430A6
:100D600089F4FC014489558966897789452B462B8E
:100D7000472B41F021812F702093E9002091E8005A
:100D800020FDC1CF089520910202243019F08FEF89
:100D90009FEF0895FC014489558966897789452B21
:100DA000462B472BA1F386818F708093E9008091B9
:100DB000E80082FFECCF8091F200882321F020919F
:100DC000F10030E002C02FEF3FEF8091F20081117F
:100DD00005C08091E8008B778093E800C9010895F1
:100DE000CF93DF93EC018C859D85CDDF97FF0BC002
:100DF00080910202882329F08C859D85AEDF09DF72
:100E0000F2CF8EEF9FEFDF91CF910895FB012EE09F
:100E1000DB011D922A95E9F723E0238323E736E0DF
:100E20003187208720EF36E03387228795878487B4
:100E300008950895CF93DF93EC018091E80083FF3C
:100E4000A6C0888190E020910702309108022817FF
:100E5000390709F09CC080910402813261F020F4CE
:100E6000803209F43EC093C0823209F46CC08332F0
:100E700009F47DC08CC080910302813A09F087C0DB
:100E80008091E800877F8093E8008091E80080FFF0
:100E9000FCCF8C899D89AE89BF898093F100492F51
:100EA0005A2F6B2F77274093F100AD0166277727E4
:100EB0004093F1008B2F9927AA27BB278093F1003D
:100EC000888D8093F100898D8093F1008A8D8093C5
:100ED000F1008091E8008E778093E800DF91CF9158
:100EE0009DCB80910302813209F051C08091E800CE
:100EF000877F8093E8008091E80082FD05C08091A3
:100F000002028111F8CF43C03091F1002091F1002D
:100F10009091F1008091F1003C8B2D8B9E8B8F8BFB
:100F20008091F100888F8091F100898F8091F1008C
:100F30008A8F8091E8008B778093E8006FDBCE0189
:100F4000DF91CF9176CF80910302813201F58091BC
:100F5000E800877F8093E80061DB80910502909133
:100F60000602998B888BCE01DF91CF9162CF809161
:100F70000302813261F48091E800877F8093E8006A
:100F80004DDB60910502CE01DF91CF9152CFDF9111
:100F9000CF910895FB01DC014150504030F08D911C
:100FA0000190801919F40020B9F7881B990B089556
:100FB000A0E0B0E0EDEDF7E010C6FA01238120FDDE
:100FC00003C080E090E019C016161706D4F77A0126
:100FD0008C01EB016C01C130D10561F0C701F4D483
:100FE0008F3FFFEF9F0769F3F60181936F01219710
:100FF0000A9789F7F6011082C801CDB7DEB7E8E09D
:1010000008C6A0E0B0E0E6E0F8E0EDC5AE014B5F59
:101010005F4FFA0161917191AF0180910D02909142
:101020000E0248D0E2E0FBC50F931F93CF93DF93EE
:10103000E0910D02F0910E02238121FF1BC08C0173
:10104000D0E0C0E0F80181918F0160910D027091B4
:101050000E02DB011896ED91FC911997882331F06F
:101060000995892B79F3DFEFCFEFECCF8AE0099573
:10107000892B19F08FEF9FEF02C08D2F9C2FDF91EE
:10108000CF911F910F910895AEE0B0E0E9E4F8E050
:10109000AAC585E08C838B899C899A838983AE015C
:1010A000495E5F4F6D897E89CE01019663D32E968E
:1010B000E2E0B5C5ABE0B0E0EFE5F8E084C56C0177
:1010C0007B018A01FC0117821682838181FFC0C1E6
:1010D000CE0101963C01F6019381F70193FD8591C4
:1010E00093FF81917F01882309F4AEC1853239F4E1
:1010F00093FD859193FF81917F01853221F4B601A3
:1011000090E0A0D4E8CF912C212C312CFFE1F315F5
:10111000E0F08B3279F038F4803279F08332A9F440
:10112000232D206110C08D3259F0803371F4232DAE
:10113000216009C0832D8260382EE32DE46022C037
:10114000F32DF86025C0322E27C037FC2DC020EDCE
:10115000280F2A3088F436FE06C0892D6AE02AD589
:10116000922E980E19C0822D6AE024D5222E280EC8
:10117000832D8062382E10C08E3231F436FC64C16B
:10118000E32DE0643E2E08C08C3621F4F32DF06888
:101190003F2E02C0883641F4F70193FD859193FFFD
:1011A00081917F018111B2CF982F9F7D955493300B
:1011B00028F40C5F1F4F2FE329830DC0833631F0D5
:1011C000833771F0833509F055C020C0F801808164
:1011D00089830E5F1F4F88248394912C530112C082
:1011E0002801F2E04F0E511CF801A080B18036FEBC
:1011F00003C0692D70E002C06FEF7FEFC501D9D346
:101200004C018201F32DFF773F2E15C0280122E00B
:10121000420E511CF801A080B18036FE03C0692D3A
:1012200070E002C06FEF7FEFC501B8D34C01F32D22
:10123000F0683F2E820133FC19C0822D90E08816A1
:101240009906A0F4B60180E290E0FCD32A94F5CF91
:10125000F50137FC859137FE81915F01B60190E081
:10126000F1D321102A9421E0821A9108811491046B
:1012700079F7E1C0843611F0893639F5F80137FE87
:1012800007C060817181828193810C5F1F4F08C00C
:1012900060817181072E000C880B990B0E5F1F4F28
:1012A000F32DFF763F2E97FF09C09095809570959E
:1012B00061957F4F8F4F9F4FF0683F2E2AE030E0BF
:1012C000A30115D4882E861844C0853731F4232D08
:1012D0002F7EB22E2AE030E025C0932D997FB92EC3
:1012E0008F36C1F018F4883579F0AEC0803719F028
:1012F000883721F0A9C0E92FE061BE2EB4FE0DC0F1
:10130000FB2DF460BF2E09C034FE0AC0292F2660D1
:10131000B22E06C028E030E005C020E130E002C077
:1013200020E132E0F801B7FE07C06081718182815F
:1013300093810C5F1F4F06C06081718180E090E057
:101340000E5F1F4FA301D3D3882E8618FB2DFF7786
:101350003F2E36FE0DC0232D2E7FA22E891458F469
:1013600034FE0BC032FC09C0832D8E7EA82E05C032
:10137000B82CA32C03C0B82C01C0B92CA4FE0FC0FC
:10138000FE01E80DF11D8081803321F49A2D997EB4
:10139000A92E09C0A2FE06C0B394B39404C08A2D3E
:1013A000867809F0B394A3FC10C0A0FE06C0B21466
:1013B00080F4280C922C9B180DC0B21458F4B6017E
:1013C00080E290E03FD3B394F8CFB21418F42B1816
:1013D00002C0982C212CA4FE0FC0B60180E390E03F
:1013E00031D3A2FE16C0A1FC03C088E790E002C082
:1013F00088E590E0B6010CC08A2D867851F0A1FEF8
:1014000002C08BE201C080E2A7FC8DE2B60190E051
:1014100019D3891430F4B60180E390E013D39A9481
:10142000F8CF8A94F301E80DF11D8081B60190E0B8
:1014300009D38110F6CF222009F44DCEB60180E207
:1014400090E000D32A94F7CFF6018681978102C0FD
:101450008FEF9FEF2B96E2E1D2C320FD09C0FC0184
:1014600023FD05C022FF02C0738362835183408342
:10147000089544FD17C046FD17C0AB01BC01DA0159
:10148000FB01AA0FBB1FEE1FFF1F1094D1F74A0FDD
:101490005B1F6E1F7F1FCB01BA01660F771F881F6E
:1014A000991F09C033E001C034E0660F771F881F21
:1014B000991F3150D1F7620F711D811D911D089543
:1014C0000F931F93CF93DF938C01C8017DD2EC0162
:1014D00097FD06C050D2892BC1F7B801CE01EED2DC
:1014E000CE01DF91CF911F910F9108958F929F921E
:1014F000AF92BF92EF92FF920F931F93CF93DF9320
:101500008C01D62F7A01B22E5FD29C0133272B3269
:10151000310531F02D32310559F48B2D8068B82E0C
:10152000D15011F480E061C0C8014ED297FDFACFCE
:10153000CB2DCD7F2B2D2073F9F48033E9F4AA2431
:10154000AA94AD0E09F43EC0C8013ED297FD3AC040
:101550009C012F7D33272835310541F4C264D250D8
:1015600089F1C80131D297FF07C02CC0B6FE02C076
:10157000C26001C0C261DA2D812C912C540120ED92
:10158000280F283078F0C4FF03C0B80197D217C0E5
:101590002A3040F0C6FFF9CF2F7D3FEE320F3630B4
:1015A000A0F727504C2FC501B40163DF4B015C014C
:1015B000C260D15051F0C80107D297FFE0CFC1FD02
:1015C00004C0B0CF812C912C5401C7FF08C0B09447
:1015D000A09490948094811C911CA11CB11C2C2F70
:1015E000B501A401C70139DF81E0DF91CF911F91DF
:1015F0000F91FF90EF90BF90AF909F908F900895C4
:10160000A0E2B0E0E5E0FBE0E1C25C01962E7A01E9
:10161000F9018E010F5F1F4F680180E2D8011D9212
:101620008A95E9F7D50113968C9080E090E0612CC3
:10163000712C30E061E070E083FC259183FE219104
:101640008F01522E211103C080E090E090C02E3512
:1016500011F4009751F1432F50E0481759073CF41B
:101660002D3559F12D3219F4772009F103C0772077
:1016700009F468C0452D469546954695D601A40FB8
:10168000B11D452D47708B0102C0000F111F4A95F7
:10169000E2F7A8015C91452B4C93651459F0561460
:1016A00010F45394E7CF5A94E5CF31E004C0772487
:1016B000739401C0712C0196BFCF772019F08E81F1
:1016C00080628E83311103C08824839417C0F60191
:1016D0009E012F5D3F4F8081809581932E173F079C
:1016E000D1F7F2CFE114F10429F0D7018C93F7017F
:1016F00031967F019A94812C9920E9F0C50164D13B
:1017000097FD17C0FC01FF2723E0F595E7952A9583
:10171000E1F7EC0DFD1D208130E0AC01477055274D
:1017200002C0359527954A95E2F720FDDBCFB5013C
:10173000C5D1811089CFE114F10411F0D7011C92B9
:10174000C80115C0422F469546954695D601A40F6F
:10175000B11D422F47708B0102C0000F111F4A9527
:10176000E2F7A8015C91452B4C93622EA4CFA09682
:10177000EFE048C2A0E0B0E0EFEBFBE027C26C0175
:10178000EB015A01FC0117821682512CF601E3800D
:10179000FE01E3FC8591E3FE8191182FEF01882380
:1017A00009F4E0C090E0E7D0892B19F0C60188DE8B
:1017B000EDCF153241F4FE01E3FC1591E3FE1191EA
:1017C000EF01153271F4C601FFD097FDC9C0412F5A
:1017D00050E09C01332724173507C1F2B6016ED1C2
:1017E000C1C01A3239F4E3FC1591E3FE1191EF0107
:1017F00001E001C000E0F12C20ED210F2A3078F447
:1018000002606F2D70E080E090E040E232DEF62E64
:10181000FE01E3FC1591E3FE1191EF01EDCF01FF15
:1018200003C0F11003C09EC0FF24FA94183619F0CB
:101830001C3651F010C0FE01E3FC1591E3FE11913E
:10184000EF01183641F408600460FE01E3FC1591D5
:10185000E3FE1191EF01112309F484C0612F70E0C0
:1018600084E790E090D0892B09F47CC000FD07C08C
:10187000F50180809180C50102965C0102C0812C37
:10188000912C1E3649F4F6014681578160E070E0E4
:10189000202FC401E2DD7ACF1336A1F401FD02C08E
:1018A000FF24F394C60190D097FD5AC0811491048F
:1018B00029F0F4018083C40101964C01FA94F110DF
:1018C000F1CF4AC01B3551F49E01A4016F2DC60112
:1018D00097DEEC01892B09F03FC039C0C601F0DD6D
:1018E00097FD3EC01F3649F128F4143621F1193610
:1018F00039F125C0133771F01537E9F020C0811494
:10190000910429F0F4016082C40101964C01FA941B
:10191000FF2059F0C60158D03C0197FD06C02BD0DE
:10192000892B69F3B601C301C9D081149104A1F0D8
:10193000F401108211C0006203C0006101C00064A4
:10194000202FA4016F2DC601D1DD811105C0F60144
:101950008381807329F406C000FD18CF539416CFFD
:10196000552019F0852D90E002C08FEF9FEFCDB785
:10197000DEB7EFE047C191111AC1803219F08950EA
:101980008550D0F70895FC010590061621F000203F
:10199000D9F7C00108953197CF010895FC01059052
:1019A000615070400110D8F7809590958E0F9F1F61
:1019B0000895FC016150704001900110D8F78095A6
:1019C00090958E0F9F1F0895CF93DF93EC012B818D
:1019D00020FF33C026FF0AC02F7B2B838E819F817F
:1019E00001969F838E838A8190E029C022FF0FC0D9
:1019F000E881F9818081082E000C990B009719F479
:101A000020622B831AC03196F983E8830EC0EA85E1
:101A1000FB85099597FF09C02B81019611F080E2A3
:101A200001C080E1822B8B8308C02E813F812F5F14
:101A30003F4F3F832E83992702C08FEF9FEFDF91A7
:101A4000CF9108950F931F93CF93DF93FB012381D1
:101A500021FD03C08FEF9FEF2CC022FF16C04681EF
:101A60005781248135814217530744F4A081B18105
:101A70009D012F5F3F4F318320838C9326813781D7
:101A80002F5F3F4F3783268314C08B01EC01FB018E
:101A90000084F185E02D0995892BE1F6D801169691
:101AA0008D919C911797019617969C938E931697FC
:101AB000CE01DF91CF911F910F910895FB012381FA
:101AC00020FF12C026FD10C08F3F3FEF930761F04B
:101AD00082832F7D20642383268137812150310921
:101AE00037832683992708958FEF9FEF0895FA0192
:101AF000AA27283061F1203191F1E8946F936E7F2D
:101B00006E5F7F4F8F4F9F4FAF4FB1E040D0B4E03B
:101B10003ED0670F781F891F9A1FA11D680F791F7C
:101B20008A1F911DA11D6A0F711D811D911DA11D8F
:101B300022D009F468943F91062E000C3019000C55
:101B4000000C3019305D3193CEF6CF010895462F49
:101B50004770405D4193B3E00FD0C9F7F6CF462FF1
:101B60004F70405D4A3318F0495D31FD405241935A
:101B700002D0A9F7EACFB4E0A69597958795779517
:101B80006795BA95C9F700976105710508959B019E
:101B9000AC010A2E06945795479537952795BA9527
:101BA000C9F7620F731F841F951FA01D0895992701
:101BB00088270895002480FD060E660F11F0869593
:101BC000D1F7802D08952F923F924F925F926F929E
:101BD0007F928F929F92AF92BF92CF92DF92EF92BD
:101BE000FF920F931F93CF93DF93CDB7DEB7CA1B3E
:101BF000DB0B0FB6F894DEBF0FBECDBF09942A8869
:101C0000398848885F846E847D848C849B84AA8410
:101C1000B984C884DF80EE80FD800C811B81AA819D
:101C2000B981CE0FD11D0FB6F894DEBF0FBECDBF68
:081C3000ED010895F894FFCFC7
:101C38000083100000010410000001820800000168
:101C4800000000000000000000000052202569008C
:101C5800696E76616C696420726567697374657210
:101C6800007265676973746572206F7574206F669A
:101C78002072616E676500522030782578203078B0
:101C880025780A005720256920256900696E766144
:101C98006C6964207265676973746572206F72205D
:101CA80076616C75650076616C7565206F7574205A
:101CB8006F662072616E67650076616C6964206387
:101CC8006F6D6D616E6473206172653A2057207480
:101CD8006F2077726974652C205220746F207265AA
:101CE800616420616E6420424F4F5420746F2067F6
:101CF8006F20746F20626F6F746C6F61646572001F
:101D08002573206973206E6F7420612076616C6979
:101D18006420636F6D6D616E640A00424F4F54001A
:00000001FF
